{
    "contractName": "MachineStationFactory",
    "abi": [
        {
            "inputs": [
                {
                    "internalType": "address",
                    "name": "admin",
                    "type": "address"
                },
                {
                    "internalType": "address",
                    "name": "stationManager",
                    "type": "address"
                }
            ],
            "stateMutability": "nonpayable",
            "type": "constructor"
        },
        {
            "inputs": [],
            "name": "AccessControlBadConfirmation",
            "type": "error"
        },
        {
            "inputs": [
                {
                    "internalType": "address",
                    "name": "account",
                    "type": "address"
                },
                {
                    "internalType": "bytes32",
                    "name": "neededRole",
                    "type": "bytes32"
                }
            ],
            "name": "AccessControlUnauthorizedAccount",
            "type": "error"
        },
        {
            "inputs": [],
            "name": "ECDSAInvalidSignature",
            "type": "error"
        },
        {
            "inputs": [
                {
                    "internalType": "uint256",
                    "name": "length",
                    "type": "uint256"
                }
            ],
            "name": "ECDSAInvalidSignatureLength",
            "type": "error"
        },
        {
            "inputs": [
                {
                    "internalType": "bytes32",
                    "name": "s",
                    "type": "bytes32"
                }
            ],
            "name": "ECDSAInvalidSignatureS",
            "type": "error"
        },
        {
            "inputs": [
                {
                    "internalType": "bytes32",
                    "name": "messageHash",
                    "type": "bytes32"
                },
                {
                    "internalType": "uint256",
                    "name": "nonce",
                    "type": "uint256"
                }
            ],
            "name": "InvalidOwnerSignature",
            "type": "error"
        },
        {
            "inputs": [],
            "name": "InvalidShortString",
            "type": "error"
        },
        {
            "inputs": [
                {
                    "internalType": "uint256",
                    "name": "nonce",
                    "type": "uint256"
                }
            ],
            "name": "NonceAlreadyUsed",
            "type": "error"
        },
        {
            "inputs": [
                {
                    "internalType": "address",
                    "name": "token",
                    "type": "address"
                }
            ],
            "name": "SafeERC20FailedOperation",
            "type": "error"
        },
        {
            "inputs": [
                {
                    "internalType": "string",
                    "name": "str",
                    "type": "string"
                }
            ],
            "name": "StringTooLong",
            "type": "error"
        },
        {
            "inputs": [
                {
                    "internalType": "address",
                    "name": "target",
                    "type": "address"
                }
            ],
            "name": "TargetCallFailed",
            "type": "error"
        },
        {
            "inputs": [],
            "name": "ZeroAddress",
            "type": "error"
        },
        {
            "anonymous": false,
            "inputs": [],
            "name": "EIP712DomainChanged",
            "type": "event"
        },
        {
            "anonymous": false,
            "inputs": [
                {
                    "indexed": true,
                    "internalType": "address",
                    "name": "deployedAddress",
                    "type": "address"
                }
            ],
            "name": "MachineSmartAccountDeployed",
            "type": "event"
        },
        {
            "anonymous": false,
            "inputs": [
                {
                    "indexed": true,
                    "internalType": "address",
                    "name": "oldMachineStation",
                    "type": "address"
                },
                {
                    "indexed": true,
                    "internalType": "address",
                    "name": "newMachineStation",
                    "type": "address"
                },
                {
                    "indexed": false,
                    "internalType": "uint256",
                    "name": "amount",
                    "type": "uint256"
                },
                {
                    "indexed": false,
                    "internalType": "uint256",
                    "name": "nonce",
                    "type": "uint256"
                }
            ],
            "name": "MachineStationBalanceTransferred",
            "type": "event"
        },
        {
            "anonymous": false,
            "inputs": [],
            "name": "OnFailbackCall",
            "type": "event"
        },
        {
            "anonymous": false,
            "inputs": [],
            "name": "OnReceivedCall",
            "type": "event"
        },
        {
            "anonymous": false,
            "inputs": [
                {
                    "indexed": true,
                    "internalType": "bytes32",
                    "name": "role",
                    "type": "bytes32"
                },
                {
                    "indexed": true,
                    "internalType": "bytes32",
                    "name": "previousAdminRole",
                    "type": "bytes32"
                },
                {
                    "indexed": true,
                    "internalType": "bytes32",
                    "name": "newAdminRole",
                    "type": "bytes32"
                }
            ],
            "name": "RoleAdminChanged",
            "type": "event"
        },
        {
            "anonymous": false,
            "inputs": [
                {
                    "indexed": true,
                    "internalType": "bytes32",
                    "name": "role",
                    "type": "bytes32"
                },
                {
                    "indexed": true,
                    "internalType": "address",
                    "name": "account",
                    "type": "address"
                },
                {
                    "indexed": true,
                    "internalType": "address",
                    "name": "sender",
                    "type": "address"
                }
            ],
            "name": "RoleGranted",
            "type": "event"
        },
        {
            "anonymous": false,
            "inputs": [
                {
                    "indexed": true,
                    "internalType": "bytes32",
                    "name": "role",
                    "type": "bytes32"
                },
                {
                    "indexed": true,
                    "internalType": "address",
                    "name": "account",
                    "type": "address"
                },
                {
                    "indexed": true,
                    "internalType": "address",
                    "name": "sender",
                    "type": "address"
                }
            ],
            "name": "RoleRevoked",
            "type": "event"
        },
        {
            "anonymous": false,
            "inputs": [
                {
                    "indexed": false,
                    "internalType": "uint256",
                    "name": "newStorageDepositFee",
                    "type": "uint256"
                }
            ],
            "name": "StorageDepositFeeChanged",
            "type": "event"
        },
        {
            "anonymous": false,
            "inputs": [
                {
                    "indexed": true,
                    "internalType": "address",
                    "name": "target",
                    "type": "address"
                },
                {
                    "indexed": false,
                    "internalType": "bytes",
                    "name": "data",
                    "type": "bytes"
                },
                {
                    "indexed": false,
                    "internalType": "uint256",
                    "name": "nonce",
                    "type": "uint256"
                },
                {
                    "indexed": true,
                    "internalType": "address",
                    "name": "executor",
                    "type": "address"
                }
            ],
            "name": "TransactionExecuted",
            "type": "event"
        },
        {
            "stateMutability": "payable",
            "type": "fallback"
        },
        {
            "inputs": [],
            "name": "DEFAULT_ADMIN_ROLE",
            "outputs": [
                {
                    "internalType": "bytes32",
                    "name": "",
                    "type": "bytes32"
                }
            ],
            "stateMutability": "view",
            "type": "function"
        },
        {
            "inputs": [],
            "name": "REQUIRED_STORAGE_DEPOSIT_FEE_ROLE",
            "outputs": [
                {
                    "internalType": "bytes32",
                    "name": "",
                    "type": "bytes32"
                }
            ],
            "stateMutability": "view",
            "type": "function"
        },
        {
            "inputs": [],
            "name": "STATION_MANAGER_ROLE",
            "outputs": [
                {
                    "internalType": "bytes32",
                    "name": "",
                    "type": "bytes32"
                }
            ],
            "stateMutability": "view",
            "type": "function"
        },
        {
            "inputs": [
                {
                    "internalType": "uint256",
                    "name": "newStorageDepositFee",
                    "type": "uint256"
                }
            ],
            "name": "changeOwner",
            "outputs": [],
            "stateMutability": "nonpayable",
            "type": "function"
        },
        {
            "inputs": [
                {
                    "internalType": "address[]",
                    "name": "addresses",
                    "type": "address[]"
                }
            ],
            "name": "checkStorageDepositFeeAddresses",
            "outputs": [
                {
                    "internalType": "uint256",
                    "name": "count",
                    "type": "uint256"
                }
            ],
            "stateMutability": "view",
            "type": "function"
        },
        {
            "inputs": [
                {
                    "internalType": "address",
                    "name": "machineOwner",
                    "type": "address"
                },
                {
                    "internalType": "uint256",
                    "name": "nonce",
                    "type": "uint256"
                },
                {
                    "internalType": "bytes",
                    "name": "signature",
                    "type": "bytes"
                }
            ],
            "name": "deployMachineSmartAccount",
            "outputs": [
                {
                    "internalType": "address",
                    "name": "",
                    "type": "address"
                }
            ],
            "stateMutability": "nonpayable",
            "type": "function"
        },
        {
            "inputs": [],
            "name": "eip712Domain",
            "outputs": [
                {
                    "internalType": "bytes1",
                    "name": "fields",
                    "type": "bytes1"
                },
                {
                    "internalType": "string",
                    "name": "name",
                    "type": "string"
                },
                {
                    "internalType": "string",
                    "name": "version",
                    "type": "string"
                },
                {
                    "internalType": "uint256",
                    "name": "chainId",
                    "type": "uint256"
                },
                {
                    "internalType": "address",
                    "name": "verifyingContract",
                    "type": "address"
                },
                {
                    "internalType": "bytes32",
                    "name": "salt",
                    "type": "bytes32"
                },
                {
                    "internalType": "uint256[]",
                    "name": "extensions",
                    "type": "uint256[]"
                }
            ],
            "stateMutability": "view",
            "type": "function"
        },
        {
            "inputs": [
                {
                    "internalType": "address",
                    "name": "machineAddress",
                    "type": "address"
                },
                {
                    "internalType": "address[]",
                    "name": "targets",
                    "type": "address[]"
                },
                {
                    "internalType": "bytes[]",
                    "name": "data",
                    "type": "bytes[]"
                },
                {
                    "internalType": "uint256",
                    "name": "nonce",
                    "type": "uint256"
                },
                {
                    "internalType": "bytes",
                    "name": "signature",
                    "type": "bytes"
                },
                {
                    "internalType": "bytes",
                    "name": "machineOwnerSignature",
                    "type": "bytes"
                }
            ],
            "name": "executeMachineBatchTransactions",
            "outputs": [],
            "stateMutability": "nonpayable",
            "type": "function"
        },
        {
            "inputs": [
                {
                    "internalType": "address",
                    "name": "machineAddress",
                    "type": "address"
                },
                {
                    "internalType": "address",
                    "name": "target",
                    "type": "address"
                },
                {
                    "internalType": "bytes",
                    "name": "data",
                    "type": "bytes"
                },
                {
                    "internalType": "uint256",
                    "name": "nonce",
                    "type": "uint256"
                },
                {
                    "internalType": "bytes",
                    "name": "signature",
                    "type": "bytes"
                },
                {
                    "internalType": "bytes",
                    "name": "machineOwnerSignature",
                    "type": "bytes"
                }
            ],
            "name": "executeMachineTransaction",
            "outputs": [],
            "stateMutability": "nonpayable",
            "type": "function"
        },
        {
            "inputs": [
                {
                    "internalType": "address",
                    "name": "machineAddress",
                    "type": "address"
                },
                {
                    "internalType": "address",
                    "name": "recipientAddress",
                    "type": "address"
                },
                {
                    "internalType": "uint256",
                    "name": "nonce",
                    "type": "uint256"
                },
                {
                    "internalType": "bytes",
                    "name": "signature",
                    "type": "bytes"
                },
                {
                    "internalType": "bytes",
                    "name": "machineOwnerSignature",
                    "type": "bytes"
                }
            ],
            "name": "executeMachineTransferBalance",
            "outputs": [],
            "stateMutability": "nonpayable",
            "type": "function"
        },
        {
            "inputs": [
                {
                    "internalType": "address",
                    "name": "target",
                    "type": "address"
                },
                {
                    "internalType": "bytes",
                    "name": "data",
                    "type": "bytes"
                },
                {
                    "internalType": "uint256",
                    "name": "nonce",
                    "type": "uint256"
                },
                {
                    "internalType": "bytes",
                    "name": "signature",
                    "type": "bytes"
                }
            ],
            "name": "executeTransaction",
            "outputs": [],
            "stateMutability": "nonpayable",
            "type": "function"
        },
        {
            "inputs": [],
            "name": "getDomainSeparator",
            "outputs": [
                {
                    "internalType": "bytes32",
                    "name": "",
                    "type": "bytes32"
                }
            ],
            "stateMutability": "view",
            "type": "function"
        },
        {
            "inputs": [
                {
                    "internalType": "bytes32",
                    "name": "role",
                    "type": "bytes32"
                }
            ],
            "name": "getRoleAdmin",
            "outputs": [
                {
                    "internalType": "bytes32",
                    "name": "",
                    "type": "bytes32"
                }
            ],
            "stateMutability": "view",
            "type": "function"
        },
        {
            "inputs": [
                {
                    "internalType": "bytes32",
                    "name": "role",
                    "type": "bytes32"
                },
                {
                    "internalType": "address",
                    "name": "account",
                    "type": "address"
                }
            ],
            "name": "grantRole",
            "outputs": [],
            "stateMutability": "nonpayable",
            "type": "function"
        },
        {
            "inputs": [
                {
                    "internalType": "bytes32",
                    "name": "role",
                    "type": "bytes32"
                },
                {
                    "internalType": "address",
                    "name": "account",
                    "type": "address"
                }
            ],
            "name": "hasRole",
            "outputs": [
                {
                    "internalType": "bool",
                    "name": "",
                    "type": "bool"
                }
            ],
            "stateMutability": "view",
            "type": "function"
        },
        {
            "inputs": [
                {
                    "internalType": "bytes32",
                    "name": "role",
                    "type": "bytes32"
                },
                {
                    "internalType": "address",
                    "name": "callerConfirmation",
                    "type": "address"
                }
            ],
            "name": "renounceRole",
            "outputs": [],
            "stateMutability": "nonpayable",
            "type": "function"
        },
        {
            "inputs": [
                {
                    "internalType": "bytes32",
                    "name": "role",
                    "type": "bytes32"
                },
                {
                    "internalType": "address",
                    "name": "account",
                    "type": "address"
                }
            ],
            "name": "revokeRole",
            "outputs": [],
            "stateMutability": "nonpayable",
            "type": "function"
        },
        {
            "inputs": [
                {
                    "internalType": "bytes4",
                    "name": "interfaceId",
                    "type": "bytes4"
                }
            ],
            "name": "supportsInterface",
            "outputs": [
                {
                    "internalType": "bool",
                    "name": "",
                    "type": "bool"
                }
            ],
            "stateMutability": "view",
            "type": "function"
        },
        {
            "inputs": [
                {
                    "internalType": "address",
                    "name": "newMachineStationAddress",
                    "type": "address"
                },
                {
                    "internalType": "uint256",
                    "name": "nonce",
                    "type": "uint256"
                },
                {
                    "internalType": "bytes",
                    "name": "signature",
                    "type": "bytes"
                }
            ],
            "name": "transferMachineStationBalance",
            "outputs": [],
            "stateMutability": "nonpayable",
            "type": "function"
        },
        {
            "stateMutability": "payable",
            "type": "receive"
        }
    ],
    "bytecode": "61016034610212576001600160401b0390614242601f38829003908101601f1916830190848211848310176101fe578084916040948594855283398101031261021257610057602061005084610231565b9301610231565b9080519161006483610216565b6015835260208301937f4d616368696e6553746174696f6e466163746f72790000000000000000000000855282519561009c87610216565b6001875260208701603160f81b81526100b4866104ee565b966101209788526100c489610685565b96610140978852519020978860e05251902096610100978089524660a05285519060208201927f8b73c3c69bb8fe3d512ecc4cf759cc79239f7b179b0ffacaa9a75d522b39400f84528783015260608201524660808201523060a082015260a0815260c0810192818410908411176101fe578286525190206080523060c052670494654067e100006004556001600160a01b0390828216156101ef57508216156101de579061017561017b92610245565b506102b1565b50610184610350565b5061018d6103da565b50610196610464565b505191613a0693846107bc853960805184611a59015260a05184611b14015260c05184611a23015260e05184611aa801525183611ace015251826108030152518161082d0152f35b825163d92e233d60e01b8152600490fd5b63d92e233d60e01b8152600490fd5b634e487b7160e01b5f52604160045260245ffd5b5f80fd5b604081019081106001600160401b038211176101fe57604052565b51906001600160a01b038216820361021257565b6001600160a01b03165f8181525f80516020614222833981519152602052604090205460ff166102ac575f8181525f8051602061422283398151915260205260408120805460ff191660011790553391905f805160206141c28339815191528180a4600190565b505f90565b6001600160a01b03165f8181527f76035acbb809d443d98cd356304e9c3bdc89a0c0e4be0928184a5c1ef404b06260205260409020547fba272f7c1126fd55bcfa14f28b454a38c350674073ade218b9dfdce40c1d0194919060ff1661034a57815f52600260205260405f20815f5260205260405f20600160ff1982541617905533915f805160206141c28339815191525f80a4600190565b50505f90565b6108005f8190525f805160206142028339815191526020527f0c58bca22d66ba5c758d650d700b9904541c63cffaeafdeb6d4ff64f1afb0fb5545f805160206141e2833981519152919060ff1661034a57815f52600260205260405f20815f5260205260405f20600160ff1982541617905533915f805160206141c28339815191525f80a4600190565b6108025f8190525f805160206142028339815191526020527fcc4802f6554f6237c6ddc2c10a328156edc2184119d1224b614c5d76c9791d82545f805160206141e2833981519152919060ff1661034a57815f52600260205260405f20815f5260205260405f20600160ff1982541617905533915f805160206141c28339815191525f80a4600190565b6108015f8190525f805160206142028339815191526020527f0248981f8cfa57df97379ecef40076fee0699dd8a700920975d65bc82c92d480545f805160206141e2833981519152919060ff1661034a57815f52600260205260405f20815f5260205260405f20600160ff1982541617905533915f805160206141c28339815191525f80a4600190565b8051602090818110156105645750601f825111610526578082519201519080831061051857501790565b825f19910360031b1b161790565b60448260405192839163305a27a960e01b83528160048401528051918291826024860152018484015e5f828201840152601f01601f19168101030190fd5b906001600160401b0382116101fe575f54926001938481811c9116801561067b575b8382101461066757601f8111610634575b5081601f84116001146105d257509282939183925f946105c7575b50501b915f199060031b1c1916175f5560ff90565b015192505f806105b2565b919083601f1981165f8052845f20945f905b8883831061061a5750505010610602575b505050811b015f5560ff90565b01515f1960f88460031b161c191690555f80806105f5565b8587015188559096019594850194879350908101906105e4565b5f805284601f845f20920160051c820191601f860160051c015b82811061065c575050610597565b5f815501859061064e565b634e487b7160e01b5f52602260045260245ffd5b90607f1690610586565b8051602090818110156106af5750601f825111610526578082519201519080831061051857501790565b9192916001600160401b0381116101fe5760019182548381811c911680156107b1575b8282101461066757601f811161077e575b5080601f831160011461071e5750819293945f92610713575b50505f19600383901b1c191690821b17905560ff90565b015190505f806106fc565b90601f19831695845f52825f20925f905b888210610767575050838596971061074f575b505050811b01905560ff90565b01515f1960f88460031b161c191690555f8080610742565b80878596829496860151815501950193019061072f565b835f5283601f835f20920160051c820191601f850160051c015b8281106107a65750506106e3565b5f8155018490610798565b90607f16906106d256fe6080806040526004361015610062575b50361561003c577f3dc49a9ff525948491d546d36f1f8f4a5e8c1061519701a9ea138fe2c3cb1a435f80a1005b7fdd3c646f071b41da826ff81c94dc1b875023e92d79bc1be9595ba9e8f62e41f55f80a1005b5f905f3560e01c90816301ffc9a71461142d5750806306c90d7b14611112578063248a9ca3146110e55780632f2ff15d146110a757806336568abe1461105f578063471e60b714610f1e578063490faada14610ee45780634b590ceb14610ea957806371c925c314610e6e57806379a2cd4f1461090d57806384b0196e146107ed57806391d14854146107a3578063924c19f714610755578063a1321906146105a4578063a217fddf14610588578063d547741f14610546578063ed00dcb51461035a578063ed24911d146103375763f38459eb0361000f573461033457610149366114d9565b335f9081527fac33ff75c19e70fe83507db0d683fd3465c996598dc972688b7ace676c89077b60209081526040909120549294939290919060ff1615610316576001600160a01b038416948515610304578387526003835260ff6040882054166102eb578361020361020992604051868101907fb754af7fdd46b6fc55b711af63d7b59453c35e3d1908dffba9481079276ce15782528a6040820152846060820152606081526101f88161154d565b519020943691611685565b83611827565b156102cd5750818552600381526040808620805460ff19166001179055516370a0823160e01b81523060048201529281846024816108095afa9384156102c257869461028d575b508361025b916118ca565b6040519283528201527fbe575ac7be9393c7e92e96432563d13256bfff696a7260480bebb40dfeecb65c60403092a380f35b9093508181813d83116102bb575b6102a5818361159e565b810103126102b757519261025b610250565b5f80fd5b503d61029b565b6040513d88823e3d90fd5b6044908360405191633625d6bb60e01b835260048301526024820152fd5b604051632472ad4160e21b815260048101859052602490fd5b60405163d92e233d60e01b8152600490fd5b60405163e2517d3f60e01b81523360048201525f6024820152604490fd5b80fd5b50346103345780600319360112610334576020610352611a20565b604051908152f35b503461033457608036600319011261033457610374611480565b6001600160401b03602435818111610542576103949036906004016114ac565b90916044359060643590811161053e576103b29036906004016114ac565b9390946103bd61178c565b6001600160a01b038116948515610304578388526020966003885260ff60408a2054166105255784610203610445926103f7368a89611685565b8b81519101206040518c8101917f9b32e4d070363cb19be3cb3fd56e8ded5ecf343731510315eb777279bf0bb88f83528c60408301526060820152846080820152608081526101f881611568565b1561050757508680918482526003885260408220600160ff1982541617905560405186858237828188810182815203925af13d15610502573d6104878161166a565b90610495604051928361159e565b815287873d92013e5b156104e957906104dc7fe9200e38f15edd38df305303c1b8a3ddcf792f530857fa4304c56918923688b49392604051936040855260408501916116bb565b948201528033940390a380f35b604051636515b5e360e11b815260048101859052602490fd5b61049e565b6044908460405191633625d6bb60e01b835260048301526024820152fd5b604051632472ad4160e21b815260048101869052602490fd5b8580fd5b8380fd5b503461033457604036600319011261033457610584600435610566611496565b90808452600260205261057f6001604086200154611805565b6119ac565b5080f35b5034610334578060031936011261033457602090604051908152f35b50346103345760a0366003190112610334576105be611480565b906105c7611496565b60443592906001600160401b0390606435828111610751576105ed9036906004016114ac565b91909260843590811161053e576106089036906004016114ac565b92909461061361178c565b6001600160a01b03908116928315610304571693841561030457878752600360205260ff60408820541661073857876102036106939260405160208101907f697034aac2a7a1f33a41731a5606341564e2b5afb05f29ad63707a05365d44108252876040820152896060820152846080820152608081526101f881611568565b1561071a57508585968652600360205260408620600160ff19825416179055813b1561053e578580946106ee604051978896879586946344f22f2160e01b8652600486015260248501526060604485015260648401916116bb565b03925af1801561070f576106ff5750f35b6107089061151f565b6103345780f35b6040513d84823e3d90fd5b6044908760405191633625d6bb60e01b835260048301526024820152fd5b604051632472ad4160e21b815260048101899052602490fd5b8480fd5b5034610334576020366003190112610334577fd5158900c7858e856f60a749e88647e389dfaf04256e139fc6109740bde6a998602060043561079561178c565b80600455604051908152a180f35b50346103345760403660031901126103345760406107bf611496565b9160043581526002602052209060018060a01b03165f52602052602060ff60405f2054166040519015158152f35b50346103345780600319360112610334576108277f0000000000000000000000000000000000000000000000000000000000000000611b3a565b906108517f0000000000000000000000000000000000000000000000000000000000000000611c5e565b906040519060209060208301938385106001600160401b038611176108f95792849260206108af88966108a198604052858552604051988998600f60f81b8a5260e0858b015260e08a0190611646565b9088820360408a0152611646565b924660608801523060808801528460a088015286840360c088015251928381520193925b8281106108e257505050500390f35b8351855286955093810193928101926001016108d3565b634e487b7160e01b5f52604160045260245ffd5b50346103345760c036600319011261033457610927611480565b906024356001600160401b038111610e6a576109479036906004016115d6565b6001600160401b0360443511610e6a57366023604435011215610e6a576001600160401b036044356004013511610e6a573660246044356004013560051b604435010111610e6a576084356001600160401b038111610e66576109ae9036906004016114ac565b9060a4356001600160401b038111610751576109ce9036906004016114ac565b916109d761178c565b6001600160a01b03871615610304576001855110610304576064358652600360205260ff604087205416610e4c5760405193602085019485908751968160208a019182998c5b818110610e2a575050610a3b9250601f19828203018252038261159e565b519020610a4d604435600401356115bf565b610a5a604051918261159e565b60046044350135808252610a6d906115bf565b601f1901366020830137885b604435600401358110610d90575060405160208101918260208251919201908c5b818110610d7a575050509181610ac1610b2c9695936102039503601f19810183528261159e565b5190206040519060208201927fe9f484536292dd12b1e4931d357bf050d3c918ba159be58ce86ada0c36f566d784528d60018060a01b031660408401526060830152608082015260643560a082015260a08152610b1d81611532565b51902093606435923691611685565b15610d5a57506064358552600360205260408520805460ff19166001179055610b5484611703565b80158015610ca7575b50506001600160a01b0386163b1561075157604051637b063e8f60e01b81526080600482015293516084850181905260a485019390865b818110610c8857505050600319848403016024850152604435600401358352602083019260206044356004013560051b8201019360246044350191875b604435600401358110610c21575087808881818d818381610c078f8f8f60643560448601526003198584030160648601526116bb565b03926001600160a01b03165af1801561070f576106ff5750f35b90919295601f198382030184528635604219604435360301811215610c8457604435016044602482013591016001600160401b038211610c80578136038113610c8057610c7460019360209384936116bb565b98019401929101610bd1565b8a80fd5b8980fd5b82516001600160a01b0316865260209586019590920191600101610b94565b60045490828281020482141715610d46576040516370a0823160e01b81526001600160a01b03891660048201526020816024816108095afa908115610d3b578891610d09575b508183021115610b5d57610d029102876118ca565b5f80610b5d565b90506020813d602011610d33575b81610d246020938361159e565b810103126102b757515f610ced565b3d9150610d17565b6040513d8a823e3d90fd5b634e487b7160e01b87526011600452602487fd5b60449060405190633625d6bb60e01b825260048201526064356024820152fd5b8251845260209384019390920191600101610a9a565b60421960443536030160248260051b6044350101351215610c84576001600160401b036024808360051b60443501013560443501013511610c845760448035600583901b8101602490810135909101908101353603910113610c8457600190610e123660448035600585901b8101602490810135909101908101359101611685565b60208151910120610e2382856116db565b5201610a79565b84516001600160a01b0316835260209485019486945090920191600101610a1d565b604051632472ad4160e21b81526064356004820152602490fd5b8280fd5b5080fd5b503461033457806003193601126103345760206040517fba272f7c1126fd55bcfa14f28b454a38c350674073ade218b9dfdce40c1d01948152f35b503461033457602036600319011261033457600435906001600160401b038211610334576020610352610edf36600486016115d6565b611703565b503461033457806003193601126103345760206040517e3e1d629c42fadb08d65dad7500c211ed988ea4560b14fca6d4aea74d8c3a118152f35b503461033457610f2d366114d9565b610f3b94939492919261178c565b6001600160a01b039485169283156103045782610203610f999260405160208101907fcb883d475dccf01f51b65f8b39268d178457d3fddf68741f0d23b23b9667f0898252886040820152846060820152606081526101f88161154d565b156110425750825260036020526040808320805460ff191660011790555190611b6280830191906001600160401b0383118484101761102e57918391604093611e6f8439815230602082015203019082f09182156110215760209216807f437b0f498ec98a9c0806db0a647e9a775919e80cdaff191d79b0e1058642d3c96040519380a28152f35b50604051903d90823e3d90fd5b634e487b7160e01b85526041600452602485fd5b60449160405191633625d6bb60e01b835260048301526024820152fd5b503461033457604036600319011261033457611079611496565b336001600160a01b0382160361109557610584906004356119ac565b60405163334bd91960e11b8152600490fd5b5034610334576040366003190112610334576105846004356110c7611496565b9080845260026020526110e06001604086200154611805565b61192e565b50346103345760203660031901126103345760016040602092600435815260028452200154604051908152f35b50346102b75760031960c0368201126102b75761112d611480565b611135611496565b6001600160401b0391906044358381116102b7576111579036906004016114ac565b9092606435956084358681116102b7576111759036906004016114ac565b91909660a4359081116102b7576111909036906004016114ac565b97909361119b61178c565b6001600160a01b03908116968715610304571692831561030457895f526020916003835260ff60405f205416611414578a610203611233926111df8c8b3691611685565b868151910120604051878101917f90e38a06e0fbef4f398e1c2f195324b0a08b93b67ac0ff9ed53bb4ec857d475d83528d60408301528a606083015260808201528460a082015260a081526101f881611532565b156113f65750885f526003815260405f20600160ff198254161790557e3e1d629c42fadb08d65dad7500c211ed988ea4560b14fca6d4aea74d8c3a115f526002815260405f20835f52815260ff60405f205416611306575b50843b156102b7576112c9975f9788946112dd936040519b8c9a8b998a98630d88b34560e31b8a5260048a0152608060248a015260848901916116bb565b9360448701528584030160648601526116bb565b03925af180156112fb576112ef575080f35b6112f9915061151f565b005b6040513d5f823e3d90fd5b6040516370a0823160e01b81526004810187905261080991908181602481865afa80156112fb575f906113c1575b670494654067e100009150111561134c575b5061128b565b5f6040518281019063a9059cbb60e01b8252896024820152670de0b6b3a764000060448201526044815261137f8161154d565b519082855af1156112fb575f513d6113b85750803b155b6113a05780611346565b60249060405190635274afe760e01b82526004820152fd5b60011415611396565b508181813d83116113ef575b6113d7818361159e565b810103126102b757670494654067e100009051611334565b503d6113cd565b6044908a60405191633625d6bb60e01b835260048301526024820152fd5b604051632472ad4160e21b8152600481018c9052602490fd5b346102b75760203660031901126102b7576004359063ffffffff60e01b82168092036102b757602091637965db0b60e01b811490811561146f575b5015158152f35b6301ffc9a760e01b14905083611468565b600435906001600160a01b03821682036102b757565b602435906001600160a01b03821682036102b757565b9181601f840112156102b7578235916001600160401b0383116102b757602083818601950101116102b757565b60606003198201126102b7576004356001600160a01b03811681036102b7579160243591604435906001600160401b0382116102b75761151b916004016114ac565b9091565b6001600160401b0381116108f957604052565b60c081019081106001600160401b038211176108f957604052565b608081019081106001600160401b038211176108f957604052565b60a081019081106001600160401b038211176108f957604052565b604081019081106001600160401b038211176108f957604052565b90601f801991011681019081106001600160401b038211176108f957604052565b6001600160401b0381116108f95760051b60200190565b9080601f830112156102b75760209082356115f0816115bf565b936115fe604051958661159e565b81855260208086019260051b8201019283116102b757602001905b828210611627575050505090565b81356001600160a01b03811681036102b7578152908301908301611619565b805180835260209291819084018484015e5f828201840152601f01601f1916010190565b6001600160401b0381116108f957601f01601f191660200190565b9291926116918261166a565b9161169f604051938461159e565b8294818452818301116102b7578281602093845f960137010152565b908060209392818452848401375f828201840152601f01601f1916010190565b80518210156116ef5760209160051b010190565b634e487b7160e01b5f52603260045260245ffd5b905f915f5b81518110156117885760ff6001600160a01b0361172583856116db565b51165f9081527fb0372863f3131c26cb877e6c1d89377aebbe992c7ae29dd20226c8cbcb6a05ba602052604090205416611762575b600101611708565b925f198114611774576001019261175a565b634e487b7160e01b5f52601160045260245ffd5b5050565b335f9081527f76035acbb809d443d98cd356304e9c3bdc89a0c0e4be0928184a5c1ef404b06260205260409020547fba272f7c1126fd55bcfa14f28b454a38c350674073ade218b9dfdce40c1d01949060ff16156117e75750565b6044906040519063e2517d3f60e01b82523360048301526024820152fd5b805f52600260205260405f20335f5260205260ff60405f205416156117e75750565b9091805f52600360205260ff60405f2054166118b2575061187691604261186d92611850611a20565b906040519161190160f01b83526002830152602282015220611d2f565b90929192611d69565b6001600160a01b03165f9081527fac33ff75c19e70fe83507db0d683fd3465c996598dc972688b7ace676c89077b602052604090205460ff1690565b60249060405190632472ad4160e21b82526004820152fd5b60405163a9059cbb60e01b60208281019182526001600160a01b0390931660248301526044808301949094529281525f906119048161154d565b516108099382855af1156112fb575f513d6119255750803b155b6113a05750565b6001141561191e565b90815f52600260205260405f209060018060a01b031690815f5260205260ff60405f205416155f146119a657815f52600260205260405f20815f5260205260405f20600160ff1982541617905533917f2f8788117e7eff1d82e926ec794901d17c78024a50270940304540a733656f0d5f80a4600190565b50505f90565b90815f52600260205260405f209060018060a01b031690815f5260205260ff60405f2054165f146119a657815f52600260205260405f20815f5260205260405f2060ff19815416905533917ff6391f5c32d9c69d2a47ea670b442974b53935d1edc7fd64eb21e047a839171b5f80a4600190565b307f00000000000000000000000000000000000000000000000000000000000000006001600160a01b03161480611b11575b15611a7b577f000000000000000000000000000000000000000000000000000000000000000090565b60405160208101907f8b73c3c69bb8fe3d512ecc4cf759cc79239f7b179b0ffacaa9a75d522b39400f82527f000000000000000000000000000000000000000000000000000000000000000060408201527f000000000000000000000000000000000000000000000000000000000000000060608201524660808201523060a082015260a08152611b0b81611532565b51902090565b507f00000000000000000000000000000000000000000000000000000000000000004614611a52565b60ff8114611b785760ff811690601f8211611b665760405191611b5c83611583565b8252602082015290565b604051632cd44ac360e21b8152600490fd5b506040515f8054906001908260011c60018416928315611c54575b6020948583108514611c40578287528694908115611c205750600114611bc5575b5050611bc29250038261159e565b90565b5f8080527f290decd9548b62a8d60345a988386fc84ba6bc95484008f6362f93160ef3e56395935091905b818310611c08575050611bc293508201015f80611bb4565b85548784018501529485019486945091830191611bf0565b915050611bc294925060ff191682840152151560051b8201015f80611bb4565b634e487b7160e01b5f52602260045260245ffd5b90607f1690611b93565b60ff8114611c805760ff811690601f8211611b665760405191611b5c83611583565b506040515f60018054918260011c60018416928315611d25575b6020948583108514611c40578287528694908115611c205750600114611cc8575050611bc29250038261159e565b9093915060015f527fb10e2d527612073b26eecdfd717e6a320cf44b4afac2b0732d9fcbe2b7fa0cf6935f915b818310611d0d575050611bc293508201015f80611bb4565b85548784018501529485019486945091830191611cf5565b90607f1690611c9a565b8151919060418303611d5f57611d589250602082015190606060408401519301515f1a90611dec565b9192909190565b50505f9160029190565b6004811015611dd85780611d7b575050565b60018103611d955760405163f645eedf60e01b8152600490fd5b60028103611db65760405163fce698f760e01b815260048101839052602490fd5b600314611dc05750565b602490604051906335e2f38360e21b82526004820152fd5b634e487b7160e01b5f52602160045260245ffd5b91907f7fffffffffffffffffffffffffffffff5d576e7357a4501ddfe92f46681b20a08411611e63579160209360809260ff5f9560405194855216868401526040830152606082015282805260015afa156112fb575f516001600160a01b03811615611e5957905f905f90565b505f906001905f90565b5050505f916003919056fe610160346101fe576001600160401b03611b62601f38829003908101601f1916840190838211858310176101ea57808591604094859485528339810103126101fe57610056602061004f8561021d565b940161021d565b9080519161006383610202565b6013835260208301937f4d616368696e65536d6172744163636f756e7400000000000000000000000000855282519561009b87610202565b6001875260208701603160f81b81526100b38661033c565b966101209788526100c3896104d3565b96610140978852519020978860e05251902096610100978089524660a05285519060208201927f8b73c3c69bb8fe3d512ecc4cf759cc79239f7b179b0ffacaa9a75d522b39400f84528783015260608201524660808201523060a082015260a0815260c0810193818510908511176101ea578386525190206080523060c0526001600160a01b039081169182156101db57508216156101ca57600380546001600160a01b03191690911790556101829061017c81610231565b5061029d565b505191611518938461060a8539608051846110bd015260a05184611188015260c05184611087015260e0518461110c015251836111320152518261020b015251816102340152f35b825163d92e233d60e01b8152600490fd5b63d92e233d60e01b8152600490fd5b634e487b7160e01b5f52604160045260245ffd5b5f80fd5b604081019081106001600160401b038211176101ea57604052565b51906001600160a01b03821682036101fe57565b6001600160a01b03165f8181525f80516020611b42833981519152602052604090205460ff16610298575f8181525f80516020611b4283398151915260205260408120805460ff191660011790553391905f80516020611b228339815191528180a4600190565b505f90565b6001600160a01b03165f8181527f0dfe31f0f6ba2f376d652c4fcbf86cea8151cd1b116a8105a365add2a554ee8160205260409020547f71d98c4c57ac41ab6c267d775dd524f57f99d0415ec2bcc47d70d31c0efd17b1919060ff1661033657815f52600260205260405f20815f5260205260405f20600160ff1982541617905533915f80516020611b228339815191525f80a4600190565b50505f90565b8051602090818110156103b25750601f825111610374578082519201519080831061036657501790565b825f19910360031b1b161790565b60448260405192839163305a27a960e01b83528160048401528051918291826024860152018484015e5f828201840152601f01601f19168101030190fd5b906001600160401b0382116101ea575f54926001938481811c911680156104c9575b838210146104b557601f8111610482575b5081601f841160011461042057509282939183925f94610415575b50501b915f199060031b1c1916175f5560ff90565b015192505f80610400565b919083601f1981165f8052845f20945f905b888383106104685750505010610450575b505050811b015f5560ff90565b01515f1960f88460031b161c191690555f8080610443565b858701518855909601959485019487935090810190610432565b5f805284601f845f20920160051c820191601f860160051c015b8281106104aa5750506103e5565b5f815501859061049c565b634e487b7160e01b5f52602260045260245ffd5b90607f16906103d4565b8051602090818110156104fd5750601f825111610374578082519201519080831061036657501790565b9192916001600160401b0381116101ea5760019182548381811c911680156105ff575b828210146104b557601f81116105cc575b5080601f831160011461056c5750819293945f92610561575b50505f19600383901b1c191690821b17905560ff90565b015190505f8061054a565b90601f19831695845f52825f20925f905b8882106105b5575050838596971061059d575b505050811b01905560ff90565b01515f1960f88460031b161c191690555f8080610590565b80878596829496860151815501950193019061057d565b835f5283601f835f20920160051c820191601f850160051c015b8281106105f4575050610531565b5f81550184906105e6565b90607f169061052056fe6080806040526004361015610012575f80fd5b5f3560e01c90816301ffc9a714610c9557508063248a9ca314610c685780632f2ff15d14610c2b57806336568abe14610be457806344f22f211461095b578063636cbe46146108ff5780636717e41c146108d05780636c459a28146106d75780637b063e8f1461031057806384b0196e146101f65780638da5cb5b146101ce57806391d1485414610185578063a217fddf1461016b578063d547741f1461012c578063ed24911d1461010a5763fb6a9dec146100cc575f80fd5b34610106575f3660031901126101065760206040517f71d98c4c57ac41ab6c267d775dd524f57f99d0415ec2bcc47d70d31c0efd17b18152f35b5f80fd5b34610106575f366003190112610106576020610124611084565b604051908152f35b346101065760403660031901126101065761016960043561014b610ce8565b90805f526002602052610164600160405f200154610f52565b611010565b005b34610106575f3660031901126101065760206040515f8152f35b346101065760403660031901126101065761019e610ce8565b6004355f52600260205260405f209060018060a01b03165f52602052602060ff60405f2054166040519015158152f35b34610106575f366003190112610106576003546040516001600160a01b039091168152602090f35b34610106575f3660031901126101065761022f7f000000000000000000000000000000000000000000000000000000000000000061126b565b6102587f000000000000000000000000000000000000000000000000000000000000000061138f565b6040516020808201928284106001600160401b038511176102fc579160206102b185946102a397966040525f8452604051978897600f60f81b895260e0858a015260e0890190610e1b565b908782036040890152610e1b565b914660608701523060808701525f60a087015285830360c087015251918281520192915f5b8281106102e557505050500390f35b8351855286955093810193928101926001016102d6565b634e487b7160e01b5f52604160045260245ffd5b34610106576080366003190112610106576004356001600160401b0380821161010657366023830112156101065781600401359161034d83610e04565b9061035b6040519283610d92565b83825260208201906024829560051b8201019036821161010657602401915b8183106106b75750505060243592828411610106573660238501121561010657836004013592808411610106573660248560051b8701011161010657606435908111610106576103ce903690600401610d14565b335f9081527f0dfe31f0f6ba2f376d652c4fcbf86cea8151cd1b116a8105a365add2a554ee8160205260409020549192909160ff1615806106a2575b61068a576044355f52600660205260ff60405f2054166106705761042d85610e04565b61043a6040519182610d92565b85815261044686610e04565b6020820190601f1901368237865f5b8982821061063c57505050604051908160208101918294519290925f5b81811061062357505061048e925003601f198101835282610d92565b5190209060405160208101918287519091905f5b8181106106045750505091816104c961052d9695936105279503601f198101835282610d92565b519020906040519060208201927fb5a77f2236108db8ee3721e29cb2de5c7ac280c84df715e06f3faf11ba2bf72384526040830152606082015260443560808201526080815261051881610d5c565b51902093604435923691610dce565b83610e3f565b156105e557506044355f52600660205260405f20916001938493600160ff198254161790555f935b61055b57005b825184101561016957849384905f806001600160a01b0361057c8489610ee9565b51168161058d858960248a01610f11565b9190826040519384928337810182815203925af16105a9610eba565b5060405190828252151560208201527f55fbc4af9054883bbf9a45d08a8bcac93017032109539cfe6bebe9180238cce760403092a20193610555565b60449060405190633b66eae960e21b8252600482015281356024820152fd5b82516001600160a01b03168452602093840193909201916001016104a2565b8451835260209485019486945090920191600101610472565b61064f8260019460246106569401610f11565b3691610dce565b602081519101206106678286610ee9565b52018790610455565b604051632472ad4160e21b81526044356004820152602490fd5b604051634a0bfec160e01b8152336004820152602490fd5b506003546001600160a01b031633141561040a565b82356001600160a01b03811681036101065781526020928301920161037a565b34610106576080366003190112610106576106f0610cfe565b6001600160401b0360243581811161010657610710903690600401610d14565b604493919335926064359081116101065761072f903690600401610d14565b335f9081527f0dfe31f0f6ba2f376d652c4fcbf86cea8151cd1b116a8105a365add2a554ee81602090815260409091205490969295919060ff1615806108bb575b61068a57815f526006875260ff60405f2054166108a2576107fd82610527610799368888610dce565b8a8151910120986040518b8101907f1ff1e0e2a8ecfc4e51458a32b21d4053e7cc8220f6b9c2e72223c2169d70df88825260018060a01b038b169b8c60408301526060820152846080820152608081526107f281610d5c565b519020943691610dce565b156108855750915f809492819482526006885260408220600160ff19825416179055826040519384928337810182815203925af1610839610eba565b501561086d576040519081527fb8a1f97c3aadecf502b8d6cfb8ef2741544cb95b7dfc786e004f532db2752c2430923392a3005b60249060405190636515b5e360e11b82526004820152fd5b60449160405191633b66eae960e21b835260048301526024820152fd5b604051632472ad4160e21b815260048101839052602490fd5b506003546001600160a01b0316331415610770565b34610106576020366003190112610106576004355f526006602052602060ff60405f2054166040519015158152f35b34610106576060366003190112610106576024356001600160401b0381116101065736602382011215610106576109516109456020923690602481600401359101610dce565b60443590600435610e3f565b6040519015158152f35b3461010657606036600319011261010657610974610cfe565b602480356044356001600160401b03811161010657610997903690600401610d14565b335f9081527f0dfe31f0f6ba2f376d652c4fcbf86cea8151cd1b116a8105a365add2a554ee816020908152604090912054929590927f71d98c4c57ac41ab6c267d775dd524f57f99d0415ec2bcc47d70d31c0efd17b19060ff1615610bc757506001600160a01b0316948515610bb557835f526006835260ff60405f205416610b9d5783610527610a6592604051868101907f60ae25e845e8a72489f31d7ae79be37e761d197498dd68de7f7c02dfe585a08e82528a6040820152846060820152606081526107f281610d41565b15610b8057505f82815260068252604090819020805460ff19166001179055516370a0823160e01b81523060048201529261080982858381845afa948515610b46575f95610b51575b50825f6040518281019063a9059cbb60e01b8252898682015288604482015260448152610ada81610d41565b519082855af115610b46575f513d610b3d5750803b155b610b285750506040519283528201527fe4506670db3a18facacc640ffa234ff9a722f01542a25fd235ffa83b394ee71360403092a3005b60405190635274afe760e01b82526004820152fd5b60011415610af1565b6040513d5f823e3d90fd5b9094508281813d8311610b79575b610b698183610d92565b8101031261010657519386610aae565b503d610b5f565b604490838560405192633b66eae960e21b84526004840152820152fd5b50505060405190632472ad4160e21b82526004820152fd5b60405163d92e233d60e01b8152600490fd5b856044916040519163e2517d3f60e01b8352336004840152820152fd5b3461010657604036600319011261010657610bfd610ce8565b336001600160a01b03821603610c195761016990600435611010565b60405163334bd91960e11b8152600490fd5b3461010657604036600319011261010657610169600435610c4a610ce8565b90805f526002602052610c63600160405f200154610f52565b610f92565b34610106576020366003190112610106576004355f5260026020526020600160405f200154604051908152f35b34610106576020366003190112610106576004359063ffffffff60e01b821680920361010657602091637965db0b60e01b8114908115610cd7575b5015158152f35b6301ffc9a760e01b14905083610cd0565b602435906001600160a01b038216820361010657565b600435906001600160a01b038216820361010657565b9181601f84011215610106578235916001600160401b038311610106576020838186019501011161010657565b608081019081106001600160401b038211176102fc57604052565b60a081019081106001600160401b038211176102fc57604052565b604081019081106001600160401b038211176102fc57604052565b90601f801991011681019081106001600160401b038211176102fc57604052565b6001600160401b0381116102fc57601f01601f191660200190565b929192610dda82610db3565b91610de86040519384610d92565b829481845281830111610106578281602093845f960137010152565b6001600160401b0381116102fc5760051b60200190565b805180835260209291819084018484015e5f828201840152601f01601f1916010190565b9091805f52600660205260ff60405f205416610ea25750610e8e916042610e8592610e68611084565b906040519161190160f01b835260028301526022820152206111ae565b909291926111e8565b6003546001600160a01b0391821691161490565b60249060405190632472ad4160e21b82526004820152fd5b3d15610ee4573d90610ecb82610db3565b91610ed96040519384610d92565b82523d5f602084013e565b606090565b8051821015610efd5760209160051b010190565b634e487b7160e01b5f52603260045260245ffd5b9190811015610efd5760051b81013590601e19813603018212156101065701908135916001600160401b038311610106576020018236038113610106579190565b805f52600260205260405f20335f5260205260ff60405f20541615610f745750565b6044906040519063e2517d3f60e01b82523360048301526024820152fd5b90815f52600260205260405f209060018060a01b031690815f5260205260ff60405f205416155f1461100a57815f52600260205260405f20815f5260205260405f20600160ff1982541617905533917f2f8788117e7eff1d82e926ec794901d17c78024a50270940304540a733656f0d5f80a4600190565b50505f90565b90815f52600260205260405f209060018060a01b031690815f5260205260ff60405f2054165f1461100a57815f52600260205260405f20815f5260205260405f2060ff19815416905533917ff6391f5c32d9c69d2a47ea670b442974b53935d1edc7fd64eb21e047a839171b5f80a4600190565b307f00000000000000000000000000000000000000000000000000000000000000006001600160a01b03161480611185575b156110df577f000000000000000000000000000000000000000000000000000000000000000090565b60405160208101907f8b73c3c69bb8fe3d512ecc4cf759cc79239f7b179b0ffacaa9a75d522b39400f82527f000000000000000000000000000000000000000000000000000000000000000060408201527f000000000000000000000000000000000000000000000000000000000000000060608201524660808201523060a082015260a0815260c081018181106001600160401b038211176102fc5760405251902090565b507f000000000000000000000000000000000000000000000000000000000000000046146110b6565b81519190604183036111de576111d79250602082015190606060408401519301515f1a90611460565b9192909190565b50505f9160029190565b600481101561125757806111fa575050565b600181036112145760405163f645eedf60e01b8152600490fd5b600281036112355760405163fce698f760e01b815260048101839052602490fd5b60031461123f5750565b602490604051906335e2f38360e21b82526004820152fd5b634e487b7160e01b5f52602160045260245ffd5b60ff81146112a95760ff811690601f8211611297576040519161128d83610d77565b8252602082015290565b604051632cd44ac360e21b8152600490fd5b506040515f8054906001908260011c60018416928315611385575b602094858310851461137157828752869490811561135157506001146112f6575b50506112f392500382610d92565b90565b5f8080527f290decd9548b62a8d60345a988386fc84ba6bc95484008f6362f93160ef3e56395935091905b8183106113395750506112f393508201015f806112e5565b85548784018501529485019486945091830191611321565b9150506112f394925060ff191682840152151560051b8201015f806112e5565b634e487b7160e01b5f52602260045260245ffd5b90607f16906112c4565b60ff81146113b15760ff811690601f8211611297576040519161128d83610d77565b506040515f60018054918260011c60018416928315611456575b602094858310851461137157828752869490811561135157506001146113f95750506112f392500382610d92565b9093915060015f527fb10e2d527612073b26eecdfd717e6a320cf44b4afac2b0732d9fcbe2b7fa0cf6935f915b81831061143e5750506112f393508201015f806112e5565b85548784018501529485019486945091830191611426565b90607f16906113cb565b91907f7fffffffffffffffffffffffffffffff5d576e7357a4501ddfe92f46681b20a084116114d7579160209360809260ff5f9560405194855216868401526040830152606082015282805260015afa15610b46575f516001600160a01b038116156114cd57905f905f90565b505f906001905f90565b5050505f916003919056fea2646970667358221220f8458dd452f869d7e8fe66566806371fd9e7bf91631fde3e49a034e4e5959fda64736f6c634300081900332f8788117e7eff1d82e926ec794901d17c78024a50270940304540a733656f0dac33ff75c19e70fe83507db0d683fd3465c996598dc972688b7ace676c89077ba264697066735822122091f13098cf68a8959eae08b31c79e52eab02a72591385fd25ed6fa5ecb81d16c64736f6c634300081900332f8788117e7eff1d82e926ec794901d17c78024a50270940304540a733656f0d003e1d629c42fadb08d65dad7500c211ed988ea4560b14fca6d4aea74d8c3a11b0372863f3131c26cb877e6c1d89377aebbe992c7ae29dd20226c8cbcb6a05baac33ff75c19e70fe83507db0d683fd3465c996598dc972688b7ace676c89077b",
    "sourcePath": "/Users/iredia/source/js/peaq-evm-smart-contracts/src/machine-station/agung/MachineStationFactory.sol",
    "compiler": {
        "name": "solc",
        "version": "0.8.25+commit.b61c2a91"
    },
    "functionHashes": {
        "DEFAULT_ADMIN_ROLE()": "a217fddf",
        "REQUIRED_STORAGE_DEPOSIT_FEE_ROLE()": "490faada",
        "STATION_MANAGER_ROLE()": "71c925c3",
        "changeOwner(uint256)": "924c19f7",
        "checkStorageDepositFeeAddresses(address[])": "4b590ceb",
        "deployMachineSmartAccount(address,uint256,bytes)": "471e60b7",
        "eip712Domain()": "84b0196e",
        "executeMachineBatchTransactions(address,address[],bytes[],uint256,bytes,bytes)": "79a2cd4f",
        "executeMachineTransaction(address,address,bytes,uint256,bytes,bytes)": "06c90d7b",
        "executeMachineTransferBalance(address,address,uint256,bytes,bytes)": "a1321906",
        "executeTransaction(address,bytes,uint256,bytes)": "ed00dcb5",
        "getDomainSeparator()": "ed24911d",
        "getRoleAdmin(bytes32)": "248a9ca3",
        "grantRole(bytes32,address)": "2f2ff15d",
        "hasRole(bytes32,address)": "91d14854",
        "renounceRole(bytes32,address)": "36568abe",
        "revokeRole(bytes32,address)": "d547741f",
        "supportsInterface(bytes4)": "01ffc9a7",
        "transferMachineStationBalance(address,uint256,bytes)": "f38459eb"
    },
    "gasEstimates": {
        "creation": {
            "codeDepositCost": "2970800",
            "executionCost": "infinite",
            "totalCost": "infinite"
        },
        "external": {
            "": "1262",
            "DEFAULT_ADMIN_ROLE()": "472",
            "REQUIRED_STORAGE_DEPOSIT_FEE_ROLE()": "293",
            "STATION_MANAGER_ROLE()": "337",
            "changeOwner(uint256)": "25773",
            "checkStorageDepositFeeAddresses(address[])": "infinite",
            "deployMachineSmartAccount(address,uint256,bytes)": "infinite",
            "eip712Domain()": "infinite",
            "executeMachineBatchTransactions(address,address[],bytes[],uint256,bytes,bytes)": "infinite",
            "executeMachineTransaction(address,address,bytes,uint256,bytes,bytes)": "infinite",
            "executeMachineTransferBalance(address,address,uint256,bytes,bytes)": "infinite",
            "executeTransaction(address,bytes,uint256,bytes)": "infinite",
            "getDomainSeparator()": "infinite",
            "getRoleAdmin(bytes32)": "2380",
            "grantRole(bytes32,address)": "33277",
            "hasRole(bytes32,address)": "2736",
            "renounceRole(bytes32,address)": "28885",
            "revokeRole(bytes32,address)": "33532",
            "supportsInterface(bytes4)": "275",
            "transferMachineStationBalance(address,uint256,bytes)": "infinite"
        },
        "internal": {
            "_hashData(bytes calldata[] calldata)": "infinite",
            "_verifySignature(bytes32,bytes memory,uint256)": "infinite"
        }
    }
}