{
    "contractName": "GasStationFactory",
    "abi": [
        {
            "inputs": [
                {
                    "internalType": "address",
                    "name": "_owner",
                    "type": "address"
                },
                {
                    "internalType": "address",
                    "name": "_gasStation",
                    "type": "address"
                }
            ],
            "stateMutability": "nonpayable",
            "type": "constructor"
        },
        {
            "inputs": [],
            "name": "ECDSAInvalidSignature",
            "type": "error"
        },
        {
            "inputs": [
                {
                    "internalType": "uint256",
                    "name": "length",
                    "type": "uint256"
                }
            ],
            "name": "ECDSAInvalidSignatureLength",
            "type": "error"
        },
        {
            "inputs": [
                {
                    "internalType": "bytes32",
                    "name": "s",
                    "type": "bytes32"
                }
            ],
            "name": "ECDSAInvalidSignatureS",
            "type": "error"
        },
        {
            "inputs": [
                {
                    "internalType": "bytes32",
                    "name": "messageHash",
                    "type": "bytes32"
                },
                {
                    "internalType": "uint256",
                    "name": "nonce",
                    "type": "uint256"
                }
            ],
            "name": "InvalidSignature",
            "type": "error"
        },
        {
            "inputs": [
                {
                    "internalType": "uint256",
                    "name": "nonce",
                    "type": "uint256"
                }
            ],
            "name": "NonceAlreadyUsed",
            "type": "error"
        },
        {
            "inputs": [
                {
                    "internalType": "address",
                    "name": "caller",
                    "type": "address"
                }
            ],
            "name": "OnlyGasStation",
            "type": "error"
        },
        {
            "inputs": [
                {
                    "internalType": "address",
                    "name": "caller",
                    "type": "address"
                }
            ],
            "name": "OnlyOwner",
            "type": "error"
        },
        {
            "inputs": [
                {
                    "internalType": "address",
                    "name": "target",
                    "type": "address"
                }
            ],
            "name": "TargetCallFailed",
            "type": "error"
        },
        {
            "inputs": [
                {
                    "internalType": "address",
                    "name": "token",
                    "type": "address"
                },
                {
                    "internalType": "address",
                    "name": "recipient",
                    "type": "address"
                },
                {
                    "internalType": "uint256",
                    "name": "amount",
                    "type": "uint256"
                }
            ],
            "name": "TransferFailed",
            "type": "error"
        },
        {
            "inputs": [],
            "name": "ZeroAddress",
            "type": "error"
        },
        {
            "anonymous": false,
            "inputs": [
                {
                    "indexed": true,
                    "internalType": "address",
                    "name": "previousGasStation",
                    "type": "address"
                },
                {
                    "indexed": true,
                    "internalType": "address",
                    "name": "newGasStation",
                    "type": "address"
                }
            ],
            "name": "GasStationChanged",
            "type": "event"
        },
        {
            "anonymous": false,
            "inputs": [
                {
                    "indexed": true,
                    "internalType": "address",
                    "name": "deployedAddress",
                    "type": "address"
                }
            ],
            "name": "MachineSmartAccountDeployed",
            "type": "event"
        },
        {
            "anonymous": false,
            "inputs": [
                {
                    "indexed": true,
                    "internalType": "address",
                    "name": "user",
                    "type": "address"
                },
                {
                    "indexed": true,
                    "internalType": "address",
                    "name": "relayer",
                    "type": "address"
                },
                {
                    "indexed": false,
                    "internalType": "address",
                    "name": "target",
                    "type": "address"
                },
                {
                    "indexed": false,
                    "internalType": "bytes",
                    "name": "functionCall",
                    "type": "bytes"
                }
            ],
            "name": "MetaTransactionExecuted",
            "type": "event"
        },
        {
            "anonymous": false,
            "inputs": [
                {
                    "indexed": true,
                    "internalType": "address",
                    "name": "previousOwner",
                    "type": "address"
                },
                {
                    "indexed": true,
                    "internalType": "address",
                    "name": "newOwner",
                    "type": "address"
                }
            ],
            "name": "OwnerChanged",
            "type": "event"
        },
        {
            "inputs": [
                {
                    "internalType": "address",
                    "name": "newGasStation",
                    "type": "address"
                }
            ],
            "name": "changeGasStation",
            "outputs": [],
            "stateMutability": "nonpayable",
            "type": "function"
        },
        {
            "inputs": [
                {
                    "internalType": "address",
                    "name": "newOwner",
                    "type": "address"
                }
            ],
            "name": "changeOwner",
            "outputs": [],
            "stateMutability": "nonpayable",
            "type": "function"
        },
        {
            "inputs": [
                {
                    "internalType": "address",
                    "name": "eoa",
                    "type": "address"
                },
                {
                    "internalType": "uint256",
                    "name": "nonce",
                    "type": "uint256"
                },
                {
                    "internalType": "bytes",
                    "name": "signature",
                    "type": "bytes"
                }
            ],
            "name": "deployMachineSmartAccount",
            "outputs": [
                {
                    "internalType": "address",
                    "name": "",
                    "type": "address"
                }
            ],
            "stateMutability": "nonpayable",
            "type": "function"
        },
        {
            "inputs": [
                {
                    "internalType": "address",
                    "name": "eoa",
                    "type": "address"
                },
                {
                    "internalType": "address",
                    "name": "machineAddress",
                    "type": "address"
                },
                {
                    "internalType": "address",
                    "name": "target",
                    "type": "address"
                },
                {
                    "internalType": "bytes",
                    "name": "data",
                    "type": "bytes"
                },
                {
                    "internalType": "uint256",
                    "name": "nonce",
                    "type": "uint256"
                },
                {
                    "internalType": "bytes",
                    "name": "signature",
                    "type": "bytes"
                },
                {
                    "internalType": "bytes",
                    "name": "eoaSignature",
                    "type": "bytes"
                }
            ],
            "name": "executeMachineTransaction",
            "outputs": [],
            "stateMutability": "nonpayable",
            "type": "function"
        },
        {
            "inputs": [
                {
                    "internalType": "address",
                    "name": "target",
                    "type": "address"
                },
                {
                    "internalType": "bytes",
                    "name": "data",
                    "type": "bytes"
                },
                {
                    "internalType": "uint256",
                    "name": "nonce",
                    "type": "uint256"
                },
                {
                    "internalType": "bytes",
                    "name": "signature",
                    "type": "bytes"
                }
            ],
            "name": "executeTransaction",
            "outputs": [],
            "stateMutability": "nonpayable",
            "type": "function"
        },
        {
            "inputs": [],
            "name": "gasStation",
            "outputs": [
                {
                    "internalType": "address",
                    "name": "",
                    "type": "address"
                }
            ],
            "stateMutability": "view",
            "type": "function"
        },
        {
            "inputs": [],
            "name": "owner",
            "outputs": [
                {
                    "internalType": "address",
                    "name": "",
                    "type": "address"
                }
            ],
            "stateMutability": "view",
            "type": "function"
        },
        {
            "inputs": [
                {
                    "internalType": "address",
                    "name": "newGasStationAddress",
                    "type": "address"
                },
                {
                    "internalType": "uint256",
                    "name": "nonce",
                    "type": "uint256"
                },
                {
                    "internalType": "bytes",
                    "name": "signature",
                    "type": "bytes"
                }
            ],
            "name": "transferGasStationBalance",
            "outputs": [],
            "stateMutability": "nonpayable",
            "type": "function"
        }
    ],
    "bytecode": "608034609d57601f61143438819003918201601f19168301916001600160401b0383118484101760a1578084926040948552833981010312609d57604b602060458360b5565b920160b5565b6001600160a01b0391821691908215608b5716908115608b5760018060a01b031990815f5416175f55600154161760015560405161136b90816100c98239f35b60405163d92e233d60e01b8152600490fd5b5f80fd5b634e487b7160e01b5f52604160045260245ffd5b51906001600160a01b0382168203609d5756fe6080806040526004361015610012575f80fd5b5f905f3560e01c90816302039bef14610826575080631d0aafe9146107b5578063471e60b7146106a55780638da5cb5b1461067e578063a6f9dae1146105fa578063dbb602fd146105d2578063dd02ac3a1461024e5763ed00dcb514610076575f80fd5b3461024b57608036600319011261024b5761008f6109cd565b67ffffffffffffffff90602435828111610247576100b19036906004016109e3565b9060443593606435908111610243576100ce9036906004016109e3565b6001549195916001600160a01b03908116330361022b57851695861561021957828852600260205260ff604089205416610200578261015a6101609260405160208101903060601b82526001600160601b03198b60601b1660348201528989604883013761014f6068828c8101886048820152036048810184520182610a58565b519020943691610a96565b83610b04565b156101e35750918580949281948252600260205260408220600160ff19825416179055826040519384928337810182815203925af13d156101de573d6101a581610a7a565b906101b36040519283610a58565b81528360203d92013e5b156101c6575080f35b60249060405190636515b5e360e11b82526004820152fd5b6101bd565b6044916040519163369ed3e760e11b835260048301526024820152fd5b604051632472ad4160e21b815260048101849052602490fd5b60405163d92e233d60e01b8152600490fd5b6040516309c9b8a760e21b8152336004820152602490fd5b8580fd5b8380fd5b80fd5b50346104775760e0366003190112610477576102686109cd565b60246001600160a01b0381358181168103610477578160443516604435036104775760643567ffffffffffffffff8111610477576102aa9036906004016109e3565b91909460a43567ffffffffffffffff8111610477576102cd9036906004016109e3565b9060c43567ffffffffffffffff8111610477576102ee9036906004016109e3565b929093876001541633036105bb5787861615610219578781161561021957876044351615610219576084355f52600260205260ff60405f2054166105a2579061015a6103979260405160208101913060601b83526001600160601b0319809160601b16603483015260443560601b166048820152898d605c830137610388607c828c8101608435605c82015203605c810184520182610a58565b51902093608435923691610a96565b1561058157506084355f52600260205260405f20600160ff198254161790556108008560443516148015610572575b8015610563575b61047b575b8483163b15610477575f948661042e60809488946104146040519c8d9a8b998a97630d88b34560e31b8952896044351660048a01528801526084870191610ae4565b608435604486015284810360031901606486015291610ae4565b0393165af1801561046c57610441578280f35b90915067ffffffffffffffff82116104595750604052005b634e487b7160e01b5f9081526041600452fd5b6040513d5f823e3d90fd5b5f80fd5b6040516370a0823160e01b81528386166004820152610809906020818981855afa801561046c575f90610529575b670494654067e10000915011156104c1575b506103d2565b60205f9160446040518094819363a9059cbb60e01b83528b8a1660048401526706f05b59d3b200008d8401525af1801561046c57156104bb5761051b9060203d602011610522575b6105138183610a58565b810190610acc565b505f6104bb565b503d610509565b506020813d60201161055b575b8161054360209383610a58565b8101031261047757670494654067e1000090516104a9565b3d9150610536565b506108018560443516146103cd565b506108028560443516146103c6565b60405163369ed3e760e11b8152600481019190915260843581880152604490fd5b604051632472ad4160e21b815260843560048201528990fd5b6040516309c9b8a760e21b81523360048201528990fd5b34610477575f366003190112610477576001546040516001600160a01b039091168152602090f35b34610477576020366003190112610477576106136109cd565b5f546001600160a01b03808216923384900361066657169182156102195782907fb532073b38c83145e3e5135377a08bf9aab55bc0fd7c1179cd4fb995d2a5159c5f80a36001600160a01b031916175f55005b604051630543601560e11b8152336004820152602490fd5b34610477575f366003190112610477575f546040516001600160a01b039091168152602090f35b34610477576106b336610a11565b6001600160a01b0393808516939284156102195761015a84916107199360405161014f8161070b87602083019530879190604893916001600160601b0319809260601b16845260601b16601483015260288201520190565b03601f198101835282610a58565b156101e357505f52600260205260405f20600160ff198254161790556040519061067080830183811067ffffffffffffffff8211176107a1576040928492610cc6843981523060208201520301905ff090811561046c576020911660405190807f437b0f498ec98a9c0806db0a647e9a775919e80cdaff191d79b0e1058642d3c95f80a28152f35b634e487b7160e01b5f52604160045260245ffd5b34610477576020366003190112610477576107ce6109cd565b5f546001600160a01b0391908216330361066657811690811561021957816001549182167f450b41443a2a1a4bcf494878e9392cca27d7663b235ddc90bc132e1f4174e5595f80a36001600160a01b03191617600155005b346104775761083436610a11565b5f54919490916001600160a01b039190821633036109b85750831693841561021957825f526020936002855260ff60405f20541661099f5761015a6108af92859260405161014f8161070b878c83019530879190604893916001600160601b0319809260601b16845260601b16601483015260288201520190565b156101e357505f526002815260405f20600160ff198254161790556040516370a0823160e01b8152306004820152610809918082602481865afa91821561046c575f92610970575b5060405163a9059cbb60e01b815284600482015282602482015281816044815f885af191821561046c575f92610953575b50501561093157005b606492604051926317e3057d60e31b8452600484015260248301526044820152fd5b6109699250803d10610522576105138183610a58565b8480610928565b9080925081813d8311610998575b6109888183610a58565b81010312610477575190846108f7565b503d61097e565b604051632472ad4160e21b815260048101859052602490fd5b630543601560e11b8152336004820152602490fd5b600435906001600160a01b038216820361047757565b9181601f840112156104775782359167ffffffffffffffff8311610477576020838186019501011161047757565b6060600319820112610477576004356001600160a01b03811681036104775791602435916044359067ffffffffffffffff821161047757610a54916004016109e3565b9091565b90601f8019910116810190811067ffffffffffffffff8211176107a157604052565b67ffffffffffffffff81116107a157601f01601f191660200190565b929192610aa282610a7a565b91610ab06040519384610a58565b829481845281830111610477578281602093845f960137010152565b90816020910312610477575180151581036104775790565b908060209392818452848401375f828201840152601f01601f1916010190565b9091805f52600260205260ff60405f205416610b6e5750610b5b91610b52917f19457468657265756d205369676e6564204d6573736167653a0a3332000000005f52601c52603c5f20610b86565b90929192610bc0565b5f546001600160a01b0391821691161490565b60249060405190632472ad4160e21b82526004820152fd5b8151919060418303610bb657610baf9250602082015190606060408401519301515f1a90610c43565b9192909190565b50505f9160029190565b6004811015610c2f5780610bd2575050565b60018103610bec5760405163f645eedf60e01b8152600490fd5b60028103610c0d5760405163fce698f760e01b815260048101839052602490fd5b600314610c175750565b602490604051906335e2f38360e21b82526004820152fd5b634e487b7160e01b5f52602160045260245ffd5b91907f7fffffffffffffffffffffffffffffff5d576e7357a4501ddfe92f46681b20a08411610cba579160209360809260ff5f9560405194855216868401526040830152606082015282805260015afa1561046c575f516001600160a01b03811615610cb057905f905f90565b505f906001905f90565b5050505f916003919056fe608034609d57601f61067038819003918201601f19168301916001600160401b0383118484101760a1578084926040948552833981010312609d57604b602060458360b5565b920160b5565b6001600160a01b0391821691908215608b5716908115608b5760018060a01b031990815f5416175f5560015416176001556040516105a790816100c98239f35b60405163d92e233d60e01b8152600490fd5b5f80fd5b634e487b7160e01b5f52604160045260245ffd5b51906001600160a01b0382168203609d5756fe604060808152600480361015610013575f80fd5b5f3560e01c908163636cbe46146102945781636717e41c146102685781636c459a28146100a6575080638da5cb5b1461007f5763b0d691fe14610054575f80fd5b3461007b575f36600319011261007b5760015490516001600160a01b039091168152602090f35b5f80fd5b503461007b575f36600319011261007b575f5490516001600160a01b039091168152602090f35b90503461007b57608036600319011261007b576001600160a01b0381358181169182820361007b5767ffffffffffffffff9060243582811161007b576100ef9036908701610377565b9290916044359160643590811161007b5761010d9036908901610377565b918060015416331415908161025a575b5061024457825f52600260205260ff895f20541661022d5782610191610197928b5160208101903060601b82526bffffffffffffffffffffffff198b60601b166034820152898960488301376101866068828c81018860488201520360488101845201826102ef565b519020943691610341565b836103a5565b156102115750915f809492819482526002602052888220600160ff198254161790558289519384928337810182815203925af13d1561020c573d6101da81610325565b906101e7865192836102ef565b81525f60203d92013e5b156101f857005b6024925191636515b5e360e11b8352820152fd5b6101f1565b604491879189519263369ed3e760e11b84528301526024820152fd5b8851632472ad4160e21b8152808901849052602490fd5b8851634a0bfec160e01b815233818a0152602490fd5b90505f54163314155f61011d565b823461007b57602036600319011261007b57602091355f526002825260ff815f20541690519015158152f35b823461007b57606036600319011261007b5760243567ffffffffffffffff811161007b573660238201121561007b576020926102dc6102e69236906024818501359101610341565b60443591356103a5565b90519015158152f35b90601f8019910116810190811067ffffffffffffffff82111761031157604052565b634e487b7160e01b5f52604160045260245ffd5b67ffffffffffffffff811161031157601f01601f191660200190565b92919261034d82610325565b9161035b60405193846102ef565b82948184528183011161007b578281602093845f960137010152565b9181601f8401121561007b5782359167ffffffffffffffff831161007b576020838186019501011161007b57565b9091805f52600260205260ff60405f20541661040f57506103fc916103f3917f19457468657265756d205369676e6564204d6573736167653a0a3332000000005f52601c52603c5f20610427565b90929192610461565b5f546001600160a01b0391821691161490565b60249060405190632472ad4160e21b82526004820152fd5b8151919060418303610457576104509250602082015190606060408401519301515f1a906104e4565b9192909190565b50505f9160029190565b60048110156104d05780610473575050565b6001810361048d5760405163f645eedf60e01b8152600490fd5b600281036104ae5760405163fce698f760e01b815260048101839052602490fd5b6003146104b85750565b602490604051906335e2f38360e21b82526004820152fd5b634e487b7160e01b5f52602160045260245ffd5b91907f7fffffffffffffffffffffffffffffff5d576e7357a4501ddfe92f46681b20a08411610566579160209360809260ff5f9560405194855216868401526040830152606082015282805260015afa1561055b575f516001600160a01b0381161561055157905f905f90565b505f906001905f90565b6040513d5f823e3d90fd5b5050505f916003919056fea264697066735822122059aaac463ace98325940f3f64859dd9dbfe193c158bd8239bc77bf5daf0a0e2c64736f6c63430008190033a26469706673582212207b59de78fd09d2ec203fdb8cb06896a2681de5efeb75ebcde658984bff655f1f64736f6c63430008190033",
    "sourcePath": "/Users/iredia/source/js/peaq-evm-smart-contracts/contracts/agung/gas-station/GasStaionFactory.sol",
    "compiler": {
        "name": "solc",
        "version": "0.8.25+commit.b61c2a91"
    },
    "functionHashes": {
        "changeGasStation(address)": "1d0aafe9",
        "changeOwner(address)": "a6f9dae1",
        "deployMachineSmartAccount(address,uint256,bytes)": "471e60b7",
        "executeMachineTransaction(address,address,address,bytes,uint256,bytes,bytes)": "dd02ac3a",
        "executeTransaction(address,bytes,uint256,bytes)": "ed00dcb5",
        "gasStation()": "dbb602fd",
        "owner()": "8da5cb5b",
        "transferGasStationBalance(address,uint256,bytes)": "02039bef"
    },
    "gasEstimates": {
        "creation": {
            "codeDepositCost": "994200",
            "executionCost": "infinite",
            "totalCost": "infinite"
        },
        "external": {
            "changeGasStation(address)": "28155",
            "changeOwner(address)": "26114",
            "deployMachineSmartAccount(address,uint256,bytes)": "infinite",
            "executeMachineTransaction(address,address,address,bytes,uint256,bytes,bytes)": "infinite",
            "executeTransaction(address,bytes,uint256,bytes)": "infinite",
            "gasStation()": "2395",
            "owner()": "2350",
            "transferGasStationBalance(address,uint256,bytes)": "infinite"
        },
        "internal": {
            "_verifySignature(bytes32,bytes memory,uint256)": "infinite"
        }
    }
}