{
    "contractName": "GasStationFactory",
    "abi": [
        {
            "inputs": [
                {
                    "internalType": "address",
                    "name": "_owner",
                    "type": "address"
                },
                {
                    "internalType": "address",
                    "name": "_gasStation",
                    "type": "address"
                }
            ],
            "stateMutability": "nonpayable",
            "type": "constructor"
        },
        {
            "inputs": [],
            "name": "ECDSAInvalidSignature",
            "type": "error"
        },
        {
            "inputs": [
                {
                    "internalType": "uint256",
                    "name": "length",
                    "type": "uint256"
                }
            ],
            "name": "ECDSAInvalidSignatureLength",
            "type": "error"
        },
        {
            "inputs": [
                {
                    "internalType": "bytes32",
                    "name": "s",
                    "type": "bytes32"
                }
            ],
            "name": "ECDSAInvalidSignatureS",
            "type": "error"
        },
        {
            "inputs": [
                {
                    "internalType": "address",
                    "name": "gasStation",
                    "type": "address"
                }
            ],
            "name": "GasStationDontExist",
            "type": "error"
        },
        {
            "inputs": [
                {
                    "internalType": "bytes32",
                    "name": "messageHash",
                    "type": "bytes32"
                },
                {
                    "internalType": "uint256",
                    "name": "nonce",
                    "type": "uint256"
                }
            ],
            "name": "InvalidSignature",
            "type": "error"
        },
        {
            "inputs": [
                {
                    "internalType": "uint256",
                    "name": "nonce",
                    "type": "uint256"
                }
            ],
            "name": "NonceAlreadyUsed",
            "type": "error"
        },
        {
            "inputs": [
                {
                    "internalType": "address",
                    "name": "caller",
                    "type": "address"
                }
            ],
            "name": "OnlyGasStation",
            "type": "error"
        },
        {
            "inputs": [
                {
                    "internalType": "address",
                    "name": "caller",
                    "type": "address"
                }
            ],
            "name": "OnlyOwner",
            "type": "error"
        },
        {
            "inputs": [
                {
                    "internalType": "address",
                    "name": "target",
                    "type": "address"
                }
            ],
            "name": "TargetCallFailed",
            "type": "error"
        },
        {
            "inputs": [
                {
                    "internalType": "address",
                    "name": "token",
                    "type": "address"
                },
                {
                    "internalType": "address",
                    "name": "recipient",
                    "type": "address"
                },
                {
                    "internalType": "uint256",
                    "name": "amount",
                    "type": "uint256"
                }
            ],
            "name": "TransferFailed",
            "type": "error"
        },
        {
            "inputs": [],
            "name": "ZeroAddress",
            "type": "error"
        },
        {
            "anonymous": false,
            "inputs": [
                {
                    "indexed": true,
                    "internalType": "address",
                    "name": "newGasStation",
                    "type": "address"
                }
            ],
            "name": "GasStationAdded",
            "type": "event"
        },
        {
            "anonymous": false,
            "inputs": [
                {
                    "indexed": true,
                    "internalType": "address",
                    "name": "oldGasStation",
                    "type": "address"
                }
            ],
            "name": "GasStationRemoved",
            "type": "event"
        },
        {
            "anonymous": false,
            "inputs": [
                {
                    "indexed": true,
                    "internalType": "address",
                    "name": "deployedAddress",
                    "type": "address"
                }
            ],
            "name": "MachineSmartAccountDeployed",
            "type": "event"
        },
        {
            "anonymous": false,
            "inputs": [
                {
                    "indexed": true,
                    "internalType": "address",
                    "name": "user",
                    "type": "address"
                },
                {
                    "indexed": true,
                    "internalType": "address",
                    "name": "relayer",
                    "type": "address"
                },
                {
                    "indexed": false,
                    "internalType": "address",
                    "name": "target",
                    "type": "address"
                },
                {
                    "indexed": false,
                    "internalType": "bytes",
                    "name": "functionCall",
                    "type": "bytes"
                }
            ],
            "name": "MetaTransactionExecuted",
            "type": "event"
        },
        {
            "anonymous": false,
            "inputs": [
                {
                    "indexed": true,
                    "internalType": "address",
                    "name": "previousOwner",
                    "type": "address"
                },
                {
                    "indexed": true,
                    "internalType": "address",
                    "name": "newOwner",
                    "type": "address"
                }
            ],
            "name": "OwnerChanged",
            "type": "event"
        },
        {
            "inputs": [
                {
                    "internalType": "address",
                    "name": "newGasStation",
                    "type": "address"
                }
            ],
            "name": "addGasStation",
            "outputs": [],
            "stateMutability": "nonpayable",
            "type": "function"
        },
        {
            "inputs": [
                {
                    "internalType": "address",
                    "name": "newOwner",
                    "type": "address"
                }
            ],
            "name": "changeOwner",
            "outputs": [],
            "stateMutability": "nonpayable",
            "type": "function"
        },
        {
            "inputs": [
                {
                    "internalType": "address",
                    "name": "eoa",
                    "type": "address"
                },
                {
                    "internalType": "uint256",
                    "name": "nonce",
                    "type": "uint256"
                },
                {
                    "internalType": "bytes",
                    "name": "signature",
                    "type": "bytes"
                }
            ],
            "name": "deployMachineSmartAccount",
            "outputs": [
                {
                    "internalType": "address",
                    "name": "",
                    "type": "address"
                }
            ],
            "stateMutability": "nonpayable",
            "type": "function"
        },
        {
            "inputs": [
                {
                    "internalType": "address",
                    "name": "eoa",
                    "type": "address"
                },
                {
                    "internalType": "address",
                    "name": "machineAddress",
                    "type": "address"
                },
                {
                    "internalType": "address",
                    "name": "target",
                    "type": "address"
                },
                {
                    "internalType": "bytes",
                    "name": "data",
                    "type": "bytes"
                },
                {
                    "internalType": "uint256",
                    "name": "nonce",
                    "type": "uint256"
                },
                {
                    "internalType": "bytes",
                    "name": "signature",
                    "type": "bytes"
                },
                {
                    "internalType": "bytes",
                    "name": "eoaSignature",
                    "type": "bytes"
                }
            ],
            "name": "executeMachineTransaction",
            "outputs": [],
            "stateMutability": "nonpayable",
            "type": "function"
        },
        {
            "inputs": [
                {
                    "internalType": "address",
                    "name": "target",
                    "type": "address"
                },
                {
                    "internalType": "bytes",
                    "name": "data",
                    "type": "bytes"
                },
                {
                    "internalType": "uint256",
                    "name": "nonce",
                    "type": "uint256"
                },
                {
                    "internalType": "bytes",
                    "name": "signature",
                    "type": "bytes"
                }
            ],
            "name": "executeTransaction",
            "outputs": [],
            "stateMutability": "nonpayable",
            "type": "function"
        },
        {
            "inputs": [
                {
                    "internalType": "address",
                    "name": "",
                    "type": "address"
                }
            ],
            "name": "gasStations",
            "outputs": [
                {
                    "internalType": "bool",
                    "name": "",
                    "type": "bool"
                }
            ],
            "stateMutability": "view",
            "type": "function"
        },
        {
            "inputs": [],
            "name": "owner",
            "outputs": [
                {
                    "internalType": "address",
                    "name": "",
                    "type": "address"
                }
            ],
            "stateMutability": "view",
            "type": "function"
        },
        {
            "inputs": [
                {
                    "internalType": "address",
                    "name": "gasStation",
                    "type": "address"
                }
            ],
            "name": "removeGasStation",
            "outputs": [],
            "stateMutability": "nonpayable",
            "type": "function"
        },
        {
            "inputs": [
                {
                    "internalType": "address",
                    "name": "newGasStationAddress",
                    "type": "address"
                },
                {
                    "internalType": "uint256",
                    "name": "nonce",
                    "type": "uint256"
                },
                {
                    "internalType": "bytes",
                    "name": "signature",
                    "type": "bytes"
                }
            ],
            "name": "transferGasStationBalance",
            "outputs": [],
            "stateMutability": "nonpayable",
            "type": "function"
        }
    ],
    "bytecode": "60803460b9576114f590601f38839003908101601f19168201906001600160401b0382118383101760bd578083916040958694855283398101031260b957604e602060488360d1565b920160d1565b6001600160a01b039182169190821560a8571690811560975760018060a01b03195f5416175f555f526001602052805f20600160ff198254161790555161141090816100e58239f35b825163d92e233d60e01b8152600490fd5b835163d92e233d60e01b8152600490fd5b5f80fd5b634e487b7160e01b5f52604160045260245ffd5b51906001600160a01b038216820360b95756fe6080806040526004361015610012575f80fd5b5f905f3560e01c90816302039bef146108cb57508063471e60b7146107bb57806386dd39e9146107485780638da5cb5b14610721578063a0debe76146106e4578063a6f9dae114610678578063d0ff367d146105f0578063dd02ac3a146102625763ed00dcb514610081575f80fd5b3461025f57608036600319011261025f5761009a610a72565b67ffffffffffffffff9060243582811161025b576100bc903690600401610a88565b9060443593606435908111610257576100d9903690600401610a88565b949094338752600160205260ff6040882054161561023f576001600160a01b03851695861561022d57828852600260205260ff604089205416610214578261016e6101749260405160208101903060601b82526001600160601b03198b60601b166034820152898960488301376101636068828c8101886048820152036048810184520182610afd565b519020943691610b3b565b83610ba9565b156101f75750918580949281948252600260205260408220600160ff19825416179055826040519384928337810182815203925af13d156101f2573d6101b981610b1f565b906101c76040519283610afd565b81528360203d92013e5b156101da575080f35b60249060405190636515b5e360e11b82526004820152fd5b6101d1565b6044916040519163369ed3e760e11b835260048301526024820152fd5b604051632472ad4160e21b815260048101849052602490fd5b60405163d92e233d60e01b8152600490fd5b6040516309c9b8a760e21b8152336004820152602490fd5b8580fd5b8380fd5b80fd5b50346104955760e03660031901126104955761027c610a72565b60246001600160a01b0381358181168103610495578160443516604435036104955760643567ffffffffffffffff8111610495576102be903690600401610a88565b91909460a43567ffffffffffffffff8111610495576102e1903690600401610a88565b9060c43567ffffffffffffffff811161049557610302903690600401610a88565b929093335f52600160205260ff60405f205416156105d9578786161561022d578781161561022d5787604435161561022d576084355f52600260205260ff60405f2054166105c0579061016e6103b59260405160208101913060601b83526001600160601b0319809160601b16603483015260443560601b166048820152898d605c8301376103a6607c828c8101608435605c82015203605c810184520182610afd565b51902093608435923691610b3b565b1561059f57506084355f52600260205260405f20600160ff198254161790556108008560443516148015610590575b8015610581575b610499575b8483163b15610495575f948661044c60809488946104326040519c8d9a8b998a97630d88b34560e31b8952896044351660048a01528801526084870191610b89565b608435604486015284810360031901606486015291610b89565b0393165af1801561048a5761045f578280f35b90915067ffffffffffffffff82116104775750604052005b634e487b7160e01b5f9081526041600452fd5b6040513d5f823e3d90fd5b5f80fd5b6040516370a0823160e01b81528386166004820152610809906020818981855afa801561048a575f90610547575b670494654067e10000915011156104df575b506103f0565b60205f9160446040518094819363a9059cbb60e01b83528b8a1660048401526706f05b59d3b200008d8401525af1801561048a57156104d9576105399060203d602011610540575b6105318183610afd565b810190610b71565b505f6104d9565b503d610527565b506020813d602011610579575b8161056160209383610afd565b8101031261049557670494654067e1000090516104c7565b3d9150610554565b506108018560443516146103eb565b506108028560443516146103e4565b60405163369ed3e760e11b8152600481019190915260843581880152604490fd5b604051632472ad4160e21b815260843560048201528990fd5b6040516309c9b8a760e21b81523360048201528990fd5b3461049557602036600319011261049557610609610a72565b5f546001600160a01b039190821633036106605716801561022d57807fabc282994fb51773577774d0f5b4ac4b3719e54049b3e9c1f7d8836dd9f125915f80a25f908152600160205260409020805460ff19169055005b604051630543601560e11b8152336004820152602490fd5b3461049557602036600319011261049557610691610a72565b5f546001600160a01b038082169233849003610660571691821561022d5782907fb532073b38c83145e3e5135377a08bf9aab55bc0fd7c1179cd4fb995d2a5159c5f80a36001600160a01b031916175f55005b34610495576020366003190112610495576001600160a01b03610705610a72565b165f526001602052602060ff60405f2054166040519015158152f35b34610495575f366003190112610495575f546040516001600160a01b039091168152602090f35b3461049557602036600319011261049557610761610a72565b5f546001600160a01b039190821633036106605716801561022d57807f0ef6c857a7c96a775acab8ebedf22eb19f819c1606082cc432755b70de59fc035f80a25f52600160205260405f20600160ff198254161790555f80f35b34610495576107c936610ab6565b6001600160a01b03938085169392841561022d5761016e849161082f936040516101638161082187602083019530879190604893916001600160601b0319809260601b16845260601b16601483015260288201520190565b03601f198101835282610afd565b156101f757505f52600260205260405f20600160ff198254161790556040519061067080830183811067ffffffffffffffff8211176108b7576040928492610d6b843981523060208201520301905ff090811561048a576020911660405190807f437b0f498ec98a9c0806db0a647e9a775919e80cdaff191d79b0e1058642d3c95f80a28152f35b634e487b7160e01b5f52604160045260245ffd5b34610495576108d936610ab6565b5f54919490916001600160a01b03919082163303610a5d5750831693841561022d57825f526020936002855260ff60405f205416610a445761016e61095492859260405161016381610821878c83019530879190604893916001600160601b0319809260601b16845260601b16601483015260288201520190565b156101f757505f526002815260405f20600160ff198254161790556040516370a0823160e01b8152306004820152610809918082602481865afa91821561048a575f92610a15575b5060405163a9059cbb60e01b815284600482015282602482015281816044815f885af191821561048a575f926109f8575b5050156109d657005b606492604051926317e3057d60e31b8452600484015260248301526044820152fd5b610a0e9250803d10610540576105318183610afd565b84806109cd565b9080925081813d8311610a3d575b610a2d8183610afd565b810103126104955751908461099c565b503d610a23565b604051632472ad4160e21b815260048101859052602490fd5b630543601560e11b8152336004820152602490fd5b600435906001600160a01b038216820361049557565b9181601f840112156104955782359167ffffffffffffffff8311610495576020838186019501011161049557565b6060600319820112610495576004356001600160a01b03811681036104955791602435916044359067ffffffffffffffff821161049557610af991600401610a88565b9091565b90601f8019910116810190811067ffffffffffffffff8211176108b757604052565b67ffffffffffffffff81116108b757601f01601f191660200190565b929192610b4782610b1f565b91610b556040519384610afd565b829481845281830111610495578281602093845f960137010152565b90816020910312610495575180151581036104955790565b908060209392818452848401375f828201840152601f01601f1916010190565b9091805f52600260205260ff60405f205416610c135750610c0091610bf7917f19457468657265756d205369676e6564204d6573736167653a0a3332000000005f52601c52603c5f20610c2b565b90929192610c65565b5f546001600160a01b0391821691161490565b60249060405190632472ad4160e21b82526004820152fd5b8151919060418303610c5b57610c549250602082015190606060408401519301515f1a90610ce8565b9192909190565b50505f9160029190565b6004811015610cd45780610c77575050565b60018103610c915760405163f645eedf60e01b8152600490fd5b60028103610cb25760405163fce698f760e01b815260048101839052602490fd5b600314610cbc5750565b602490604051906335e2f38360e21b82526004820152fd5b634e487b7160e01b5f52602160045260245ffd5b91907f7fffffffffffffffffffffffffffffff5d576e7357a4501ddfe92f46681b20a08411610d5f579160209360809260ff5f9560405194855216868401526040830152606082015282805260015afa1561048a575f516001600160a01b03811615610d5557905f905f90565b505f906001905f90565b5050505f916003919056fe608034609d57601f61067038819003918201601f19168301916001600160401b0383118484101760a1578084926040948552833981010312609d57604b602060458360b5565b920160b5565b6001600160a01b0391821691908215608b5716908115608b5760018060a01b031990815f5416175f5560015416176001556040516105a790816100c98239f35b60405163d92e233d60e01b8152600490fd5b5f80fd5b634e487b7160e01b5f52604160045260245ffd5b51906001600160a01b0382168203609d5756fe604060808152600480361015610013575f80fd5b5f3560e01c908163636cbe46146102945781636717e41c146102685781636c459a28146100a6575080638da5cb5b1461007f5763b0d691fe14610054575f80fd5b3461007b575f36600319011261007b5760015490516001600160a01b039091168152602090f35b5f80fd5b503461007b575f36600319011261007b575f5490516001600160a01b039091168152602090f35b90503461007b57608036600319011261007b576001600160a01b0381358181169182820361007b5767ffffffffffffffff9060243582811161007b576100ef9036908701610377565b9290916044359160643590811161007b5761010d9036908901610377565b918060015416331415908161025a575b5061024457825f52600260205260ff895f20541661022d5782610191610197928b5160208101903060601b82526bffffffffffffffffffffffff198b60601b166034820152898960488301376101866068828c81018860488201520360488101845201826102ef565b519020943691610341565b836103a5565b156102115750915f809492819482526002602052888220600160ff198254161790558289519384928337810182815203925af13d1561020c573d6101da81610325565b906101e7865192836102ef565b81525f60203d92013e5b156101f857005b6024925191636515b5e360e11b8352820152fd5b6101f1565b604491879189519263369ed3e760e11b84528301526024820152fd5b8851632472ad4160e21b8152808901849052602490fd5b8851634a0bfec160e01b815233818a0152602490fd5b90505f54163314155f61011d565b823461007b57602036600319011261007b57602091355f526002825260ff815f20541690519015158152f35b823461007b57606036600319011261007b5760243567ffffffffffffffff811161007b573660238201121561007b576020926102dc6102e69236906024818501359101610341565b60443591356103a5565b90519015158152f35b90601f8019910116810190811067ffffffffffffffff82111761031157604052565b634e487b7160e01b5f52604160045260245ffd5b67ffffffffffffffff811161031157601f01601f191660200190565b92919261034d82610325565b9161035b60405193846102ef565b82948184528183011161007b578281602093845f960137010152565b9181601f8401121561007b5782359167ffffffffffffffff831161007b576020838186019501011161007b57565b9091805f52600260205260ff60405f20541661040f57506103fc916103f3917f19457468657265756d205369676e6564204d6573736167653a0a3332000000005f52601c52603c5f20610427565b90929192610461565b5f546001600160a01b0391821691161490565b60249060405190632472ad4160e21b82526004820152fd5b8151919060418303610457576104509250602082015190606060408401519301515f1a906104e4565b9192909190565b50505f9160029190565b60048110156104d05780610473575050565b6001810361048d5760405163f645eedf60e01b8152600490fd5b600281036104ae5760405163fce698f760e01b815260048101839052602490fd5b6003146104b85750565b602490604051906335e2f38360e21b82526004820152fd5b634e487b7160e01b5f52602160045260245ffd5b91907f7fffffffffffffffffffffffffffffff5d576e7357a4501ddfe92f46681b20a08411610566579160209360809260ff5f9560405194855216868401526040830152606082015282805260015afa1561055b575f516001600160a01b0381161561055157905f905f90565b505f906001905f90565b6040513d5f823e3d90fd5b5050505f916003919056fea264697066735822122059aaac463ace98325940f3f64859dd9dbfe193c158bd8239bc77bf5daf0a0e2c64736f6c63430008190033a26469706673582212205cf00bdf4d147b3741b3a667d26f34ce4f7e5cc86864ba9a50b8fd915a68585164736f6c63430008190033",
    "sourcePath": "/Users/iredia/source/js/peaq-evm-smart-contracts/contracts/agung/gas-station/GasStaionFactory.sol",
    "compiler": {
        "name": "solc",
        "version": "0.8.25+commit.b61c2a91"
    },
    "functionHashes": {
        "addGasStation(address)": "86dd39e9",
        "changeOwner(address)": "a6f9dae1",
        "deployMachineSmartAccount(address,uint256,bytes)": "471e60b7",
        "executeMachineTransaction(address,address,address,bytes,uint256,bytes,bytes)": "dd02ac3a",
        "executeTransaction(address,bytes,uint256,bytes)": "ed00dcb5",
        "gasStations(address)": "a0debe76",
        "owner()": "8da5cb5b",
        "removeGasStation(address)": "d0ff367d",
        "transferGasStationBalance(address,uint256,bytes)": "02039bef"
    },
    "gasEstimates": {
        "creation": {
            "codeDepositCost": "1027200",
            "executionCost": "infinite",
            "totalCost": "infinite"
        },
        "external": {
            "addGasStation(address)": "27844",
            "changeOwner(address)": "26136",
            "deployMachineSmartAccount(address,uint256,bytes)": "infinite",
            "executeMachineTransaction(address,address,address,bytes,uint256,bytes,bytes)": "infinite",
            "executeTransaction(address,bytes,uint256,bytes)": "infinite",
            "gasStations(address)": "2511",
            "owner()": "2350",
            "removeGasStation(address)": "27928",
            "transferGasStationBalance(address,uint256,bytes)": "infinite"
        },
        "internal": {
            "_verifySignature(bytes32,bytes memory,uint256)": "infinite"
        }
    }
}